:100000000C9451000C94A0040C94AF040C9479004F
:100010000C9479000C9479000C9479000C9479007C
:100020000C9479000C9479000C9479000C9479006C
:100030000C9479000C94F8000C9479000C947900DD
:100040000C9479000C9479000C9479000C9479004C
:100050000C9479000C9479000C9479000C9479003C
:100060000C947B000C947900160361037E03C70394
:1000700016037E03C703540568057F0586059405AE
:100080005805C605DA051F3F79777D007377063777
:100090003F065B4F666D7D077F6F777C585E797199
:1000A000A40611241FBECFEFD8E0DEBFCDBF11E004
:1000B000A0E0B1E0ECE9FEE002C005900D92A030B6
:1000C000B107D9F721E0A0E0B1E001C01D92A3344F
:1000D000B207E1F710E0C1E5D0E004C02197FE01CE
:1000E0000E944607C035D107C9F70E9405030C944A
:1000F0004C070C9400000F930FB70F931F932F938F
:10010000EF93FF93209106011091B900187F1036EC
:10011000C0F4012F06950695EAE2F1E0E00F002712
:10012000F01F0591F491E02F0994A100E700E7008A
:10013000A700A100C000A100A100CB00A100D10038
:10014000D1001093000122602F7700E845C022FD06
:1001500002C023FF04C02C7F009104013AC000912B
:100160000101002381F10A9500930101E091020150
:10017000F09103010191E0930201F093030129C082
:1001800022FFEDCF2B7F21600091050101600093DC
:10019000050105EA21C0009101010130E0F005EC04
:1001A0001BC00091BB00E0910201F091030101939B
:1001B000E0930201F0930301009101010A9500937D
:1001C0000101183551F72F77206105E905C000912D
:1001D00005010093BB0005E80093BC0020930601D5
:1001E000FF91EF912F911F910F910FBF0F911895D4
:1001F0000F930FB70F9300914001039500934001B7
:1002000029F40091410103950093410100913A01C5
:10021000002339F0009142010395017000934201DF
:1002200011F00C945601419840982E985D98EF93E8
:10023000FF93ECE3F1E000913B0103950370009321
:100240003B01E00F00E0F01F008100FF5E9800FD21
:100250005E9A01FF5F9801FD5F9A02FF5C9802FDC4
:100260005C9A03FF299803FD299A04FF439804FD33
:10027000439A05FF2A9805FD2A9A06FF289806FD4D
:10028000289A07FF2F9807FD2F9A00913B01002322
:1002900011F4419A09C00A9511F4409A05C00A95D3
:1002A00011F42E9A01C05D9AFF91EF910F910FBF4B
:1002B0000F911895EF92FF920F93FC017183608369
:1002C0004283348323830187F386E286DB01119620
:1002D0008C9111974095482311964C93A081B18140
:1002E00012969C9112978281892B12968C9382810F
:1002F000878310860F91FF90EF900895DC01ED91B8
:10030000FC911197908112968C91129798231796D1
:100310002C91179718968C9118979217E1F11396D4
:10032000ED91FC9114972081318180FF2CC01596AE
:100330004D915C911697241B350B2630310508F43E
:100340004CC017969C931797282F2E7F18962C93A6
:10035000189791110BC0226018962C931897208142
:10036000318116963C932E93159704C08C7F189676
:100370008C93189761E0911101C060E01A96ED919D
:10038000FC911B9727C016963C932E93159781607E
:1003900018968C930895982F9E7F18969C93189783
:1003A00081FF1BC01396ED91FC9114972081318140
:1003B00015964D915C911697241B350B253F3140C6
:1003C00060F08C7F18968C9318971A96ED91FC919B
:1003D0001B9762E019968C9109940895CF93DF934F
:1003E000EC0160ED0E9461021A82DF91CF910895C5
:1003F0009C012D5F3F4F47E060E00C9464029C013C
:100400002D5F3F4F47E060E00C946B029C01295F39
:100410003F4F43E064E00C946B02FC019281662341
:1004200011F09F7B01C0906492830895FC01838149
:100430000895FC0184810895CF93DF93FC01C58169
:1004400061E0DC2FD074C6FD60E00E940D028C2FAD
:10045000D1118F71DF91CF910895FC0187810895AB
:10046000FC0180858F710895FC012085818590E0D5
:1004700027FF02C091620895906208956F77FC0192
:10048000638308956F77FC0164830895FC01828182
:1004900086FD02C06F7302C06F716064658308954A
:1004A0006F73FC0167830895FC016F7190859078EC
:1004B000692B60870895FC0180858F77808761872D
:1004C0000895FC0160830895742FA901272FFC0172
:1004D00080810C94C902742FA901272FFC0180810F
:1004E0000C94E7028093B8001092B90084E08093E6
:1004F000BC0010920601089580910601881F88278C
:10050000881F08950E947C02882319F00E949F048E
:10051000F9CF089580910601827008950F931F937B
:10052000CF93DF9300D01F92CDB7DEB78B012B8323
:100530004A8389830E948202109200012B812093BA
:100540000601909106014A81898190FF02C0816075
:1005500001C08E7F80930501109303010093020177
:100560004093010185EA8093BC000E949F04809122
:10057000060187FDFACF809106018695817091E092
:1005800089270F900F900F90DF91CF911F910F91BE
:1005900008950F931F93CF93DF9300D01F92CDB791
:1005A000DEB78A012B836A8389830E9482026A8173
:1005B0006093040124E84B81B80189810F900F906A
:1005C0000F90DF91CF911F910F910C948E020F939A
:1005D0001F93CF93DF9300D01F92CDB7DEB78A0170
:1005E0002B836A8389830E9482026A81609304015B
:1005F00028E84B81B80189810F900F900F90DF910F
:10060000CF911F910F910C948E020E94FF0580E004
:1006100090E00895CF9390E0FC013197E730F10529
:1006200008F0BFC0EC5CFF4F0C9446078FE091E0F0
:100630000E941C02C82F282F30E0B90144E07595B4
:1006400067954A95E1F780E00E94F4066C2F81E0FF
:100650000E94F4068091080187FF04C061E081E0F8
:100660000E9401078FE091E00E941902C82F282FF5
:1006700030E0B90134E0759567953A95E1F782E08D
:100680000E94F4066C2F83E00E94F40680910E0114
:10069000853041F48091080186FF04C060E08370DA
:1006A0000E94ED06C0910D018FE091E00E941602BC
:1006B000C81709F476C0809108018058809308011A
:1006C00070C060E080E00E94ED0660E081E00E9482
:1006D000ED068FE091E00E941602C82F282F30E02F
:1006E000B90124E0759567952A95E1F782E00E94AB
:1006F000F4066C2F83E0CF910C94F4068FE091E028
:100700000E942D02C82F282F30E0B90184E0759592
:1007100067958A95E1F780E00E94F4066C2F81E0EE
:100720000E94F40661E081E00E9401078FE091E001
:100730000E943002C82F282F30E0B90194E075954F
:1007400067959A95E1F782E00E94F4066C2F83E0AA
:100750000E94F40661E083E00E94010780910E018F
:100760008630F9F48091080186FF1BC060E081FFAC
:1007700006C082E00E94ED0660E083E005C080E0F4
:100780000E94ED0660E081E0CF910C94ED068FE0D1
:1007900091E00E9434020E940E0780910E01873082
:1007A00009F3CF910895CF93C82F8FE091E0C23025
:1007B000E0F40E941C02682FC11108C0833278F453
:1007C000803210F06F700CC0605F0AC0823218F483
:1007D0008F70893010F0607F03C06F5F01C060E0F0
:1007E0008FE091E0CF910C9446020E941902682F8D
:1007F000C23031F4803510F06F7008C0605F06C001
:100800008F70893010F0607F01C06F5F8FE091E0E2
:10081000CF910C9442028FE091E00E9434029C013F
:100820009F70892BA1F0C901807F992734E09695AC
:1008300087953A95E1F7522F42E0849F500D11249D
:10084000852F837031F481E0211104C002C081E062
:10085000089580E008958FE091E00E943002823098
:1008600031F40E940B04811108C088E20895883099
:1008700008F08F5F8170805D089589E208950F937D
:100880001F93CF93DF93082F8FE091E00E942D02FA
:10089000C82F8FE091E00E943002D82F0E942B04D5
:1008A000182F002381F0D93029F061E0D23118F4FB
:1008B0006D0F01C060E18FE091E00E945402C1170A
:1008C000B0F0612F0CC0C81748F48C2F8F7089309E
:1008D00010F067E001C061E06C0F01C061E08FE0E3
:1008E00091E0DF91CF911F910F910C945002DF9115
:1008F000CF911F910F910895CF93C82F8FE091E072
:100900000E943402BC01C11108C0882781159042A1
:1009100011F473950FC07A950DC08F7099270997C0
:1009200018F0695F7F4F06C0693911F4662702C06D
:100930006F5F7F4F8FE091E0CF910C945B02089541
:100940001F920F920FB60F9211248F938DB38C7F4D
:100950008DBB8F910F900FBE0F901F9018951F9217
:100960000F920FB60F9211248F938DB38C7F8DBB96
:100970008F910F900FBE0F901F901895F8948CB325
:1009800083608CBB109269008DB383608DBB7894BB
:1009900013BE83B7817F846083BF83B7816083BFC9
:1009A000889583B78E7F83BF8DB38C7F8DBB089571
:1009B000CF93C82F863040F4813088F480E00E94C5
:1009C000E2060E94BE0424C08830D9F0893001F5C7
:1009D00081E00E94E2068DEF8093070119C08091AB
:1009E00008018064809308018C2F0E940A0381E033
:1009F0000E94E2060E94410790930C0180930B0134
:100A000007C081E00E94E2068EEE9EEE0E940E0775
:100A100080910E018C13C0930E01CF910895CF9356
:100A2000C82F0E947C02882311F088E01EC08FE04E
:100A300091E00E94160280930D018FE091E00E94E8
:100A4000F80180910E0181110BC08FE091E00E94AE
:100A5000160280930D01909108019F7790930801F1
:100A60000E948A028111E1CF8C2FCF910C94D8047F
:100A70001F93CF93DF931F92CDB7DEB7182F6983F3
:100A80000E94410790930A0180930901E0910E01B1
:100A90008E2F90E069818830910508F0ABC0FC0191
:100AA000E55CFF4F0C944607113059F083E00AC013
:100AB000662309F447C0623009F09CC0112309F491
:100AC00055C081E00F90DF91CF911F910C940F05DD
:100AD000113021F461118EC082E00BC011118AC067
:100AE000623009F087C0809108018C7F80930801F3
:100AF00085E00F90DF91CF911F910C94D8041130B5
:100B000009F078C0611176C081E0F3CF111104C003
:100B1000611170C084E0EDCF113009F06BC062301C
:100B200009F068C086E0E5CF111104C0611162C010
:100B300083E0DFCF113009F05DC0623009F05AC0A8
:100B400087E0D7CF111109C080910801982F9C7FB1
:100B500090648F5F8370892B22C0113009F04AC0E6
:100B60008091080183700E94D3032FC00E947C02F1
:100B7000882311F088E0BDCF60E08FE091E00E9413
:100B80003E028FE091E00E94FF019BCF611125C0E2
:100B9000111108C09091080182E089278064809338
:100BA000080128C0113031F58091080182700E943F
:100BB0003F040BC0611111C0112361F31130D1F456
:100BC0008091080182700E947C0480910E010F9038
:100BD000DF91CF911F910C940A03623059F41111E7
:100BE00070CF0E947C028111C5CF8FE091E00E94FE
:100BF000060267CF0F90DF91CF911F91089587E68E
:100C0000809364000E94C80680E40E9472026EE035
:100C100081E00E942A0780ED97E0909387008093FF
:100C20008600789489E00E94D8040E94410790933E
:100C30000C0180930B0110E48EE291E00E947E0192
:100C400082E291E00E947E010E94410720910B0107
:100C500030910C0140910E01493079F5821B930BC4
:100C60008B3F910548F30E94410790930C018093BC
:100C70000B01C0E0D0E080910701FE01E80FF11DFB
:100C800087FDFA95EA30F10520F4EA57FF4F6491A9
:100C900001C060E08C2F0E94ED062196C430D10582
:100CA00051F7809107018F5F809307018E300CF41C
:100CB000C3CF80E00E94D804BFCF0E94410720919B
:100CC0000B0130910C01821B930B9C0180910E0152
:100CD0008130B8F1833028F09BEF980F933068F0A3
:100CE00030C02B3F310568F10E947C02811129C080
:100CF00080910E010E940F0524C02739310568F04C
:100D0000909108019127909308010E940A030E9484
:100D1000410790930C0180930B01C8E8D3E18091C7
:100D20000E01882309F488CF0E9441072091090110
:100D300030910A01821B930BC817D90708F07CCFAA
:100D4000B8CFC4ECD9E0EBCFEF92FF920F930E94A3
:100D50003E0728E3E22E25E0F22E00E09C0144E06D
:100D600069E270E08EE291E00E945A010E943E0723
:100D700001E09C0148E069E270E082E291E00E94BB
:100D80005A018FE091E00F91FF90EF900C94EE01EB
:100D900087EC84B98BE087B980EF8AB985B1887315
:100DA00085B988B1847F88B98BB18F708BB9ECE33A
:100DB000F1E0108211821282138210923A01109295
:100DC0003B01089580933A0180913A01811104C05A
:100DD000419840982E985D9808958370E82FF0E030
:100DE000E45CFE4F608308956F70E62FF0E0E057FB
:100DF000FF4FE4918370A82FB0E0A45CBE4FEC934A
:100E000008958370E82FF0E0E45CFE4F8081662354
:100E100011F0806801C08F7780830895CF93DF93AE
:100E2000EC01682F83E00E94F406BE0184E0769511
:100E300067958A95E1F782E00E94F4066D2F81E0C4
:100E40000E94F4066D2F62956F7080E0DF91CF9164
:100E50000C94F406962F937090938000660F68713F
:100E60008770682B609381001092820081E08093EC
:100E70006F001092410110924001089580E491E0CA
:100E8000089580914001909141010895EE0FFF1F58
:0C0E90000590F491E02D0994F894FFCF38
:00000001FF
